:0B048700C0F9A4B0999282F880908820
:10041E00C101C1000211000502150002020F000009
:0C042E000213000202080000020A000095
:08000300E4F50EF50DF50C22E9
:10043B005389F0438901758A18758CFCC28DD28C57
:07044B00D2A9D2AFC2B92211
:040478007FE87E0398
:0B047C00EF1FAC0670011E4C70F62252
:10039F00C3EF94E8EE64809483403F74FFF5F0124E
:1003AF00008E120063C3E5F064809480502CE475D6
:1003BF00F0091200C6AB1CAA1DA91E74FFF5F0129E
:1003CF00008EAB1CAA1DA91E120063C3E5F064804A
:0B03DF0094805006E4F5F01200C622E6
:1002F700E4FBFDFF12030DE40DFF12030D1D7F014B
:0603070012030D0D7F0141
:10030D007580FF75A0FFEF14601D047032ED146051
:10031D000904700AD290C2918004C290D291EB90E0
:10032D00048793F5A08018ED14600904700AD29229
:10033D00C2938004C292D293EB90048793F5807F91
:06034D00647E0002047C46
:1004520020940E1204782094083094FD120478D36C
:0304620022C32290
:1004650020950E1204782095083095FD120478D356
:0304750022C3227D
:10021F00E51645157045E5124511703FE50E2401B1
:10022F00FFE433FE7C007D0312000E8D0EE50E14ED
:10023F00601414601C24027022751500751602E4F8
:10024F00F511F512801575150075160275110080E0
:10025F0007E4F515F516F511751205E50E7003D3C4
:10026F008001C392B0E50EB40103D38001C392B2F3
:0C027F00E50EB40203D38001C392B1224B
:10028B00E51445137045E510450F703FE50D24014E
:10029B00FFE433FE7C007D0312000E8D0DE50D1483
:1002AB00601414601A24027022751300751402E492
:1002BB00F50FF5108015E4F513F514F50F8009759E
:1002CB001300751402750F00751005E50DB40203CC
:1002DB00D38001C392B5E50D7003D38001C392B3F4
:0C02EB00E50DB40103D38001C392B422DE
:10035300E50C14601914602C2402703F12045250EF
:1003630004750C01221204655031750C0222D2B0BF
:10037300C2B2C2B1D2B5C2B3C2B41202F7120452AE
:1003830050198014C2B0C2B2D2B1C2B5C2B3D2B492
:0C0393001202F71204655003E4F50C227E
:1003EA0012000312043B120353E50C70F9AB14FD1F
:1003FA00FF12030DAB100DE4FF12030DAB161D7FA8
:10040A000112030DAB120D7F0112030D12021F120E
:04041A00028B80D2FF
:03000B000200FBF5
:1000FB00C0E0C0F0C083C082C0D075D000C000C0CB
:09010B0001C002C003C006C007D8
:10011400758A18758CFC0509E50970020508050B3C
:10012400E50B7002050A751C00751D00751E157B14
:10013400007A007911AF09AE0812039F751C00758F
:100144001D00751E137B007A00790FAF0BAE0A12E7
:10015400039FC3E50994E8E5086480948340067529
:100164000800750900C3E50B94E8E50A64809483EC
:080174004006750A00750B003E
:10017C00D007D006D003D002D001D000D0D0D0828E
:07018C00D083D0F0D0E03277
:0300000002019367
:0C019300787FE4F6D8FD7581200201DAC7
:10000E00BC000BBE0029EF8DF084FFADF022E4CCD6
:10001E00F875F008EF2FFFEE33FEEC33FCEE9DEC9F
:10002E00984005FCEE9DFE0FD5F0E9E4CEFD22EDE5
:10003E00F8F5F0EE8420D21CFEADF075F008EF2F2F
:10004E00FFED33FD4007985006D5F0F222C398FD20
:05005E000FD5F0EA22BD
:10006300BB010A89828A83E0F5F0A3E02250068768
:10007300F009E71922BBFE07E3F5F009E31922892A
:0B008300828A83E493F5F0740193225D
:10008E00BB010789828A830200E5500B09C5F02760
:10009E00F7C5F01937F722BBFE0D09F8E325F0F38B
:1000AE00C5F019E338F322F889828A837401932507
:0800BE00F0C5F0F8E4933822CC
:1000C600BB010A89828A83F0E5F0A3F0225006F785
:0F00D60009A7F01922BBFE06F3E5F009F3192282
:10019F000203EAE493A3F8E493A34003F68001F289
:1001AF0008DFF48029E493A3F85407240CC8C33361
:1001BF00C4540F4420C8834004F456800146F6DF30
:1001CF00E4800B010204081020408090041EE47E9E
:1001DF00019360BCA3FF543F30E509541FFEE49325
:1001EF00A360010ECF54C025E060A840B8E493A3EC
:1001FF00FAE493A3F8E493A3C8C582C8CAC583CA17
:10020F00F0A3C8C582C8CAC583CADFE9DEE780BECE
:01043A0000C1
:1000E500C5F0F8A3E028F0C5F0F8E58215827002A6
:0600F5001583E038F02243
:00000001FF
